:100000000C943B030C9463030C9463030C94630300
:100010000C9463030C9463030C9463030C946303C8
:100020000C9463030C9463030C9463030C94B41456
:100030000C9463030C9463030C9463030C946303A8
:100040000C9431150C9463030C9463030C946303B8
:100050000C9463030C9463030C9463030C94630388
:100060000C9463030C946303506F6E67202D205033
:10007000415553454400506F6E674C6F63616C4D42
:10008000756C7469706C617965720003053F213F7E
:100090000A100A1208120E1C0E0C1E0C141A14164A
:1000A0001F161E131E1E1B1E1E1F1E3F213F3A2F12
:1000B0003A173D173F213F181F02040A041F0E0480
:1000C000040E1F0A1F0A0E0E1F04110E2E252E2FBE
:1000D0002A2E262929021F02081F08150E04040EC5
:1000E000150E15151B151B040604040C0400000056
:1000F0000017000300031F0A1F16371A1904130AFA
:10010000153A000300000E11110E000A040A040E35
:10011000040030000404040010001804031F111F21
:10012000121F101D151711151F07041F17151D1F6E
:10013000151D01011F1F151F17151F000A00003292
:1001400000040A110A0A0A110A040115020E111705
:100150001E051E1F150A0E110A1F110E1F15111F55
:1001600005010E111D1F041F111F1108100F1F0480
:100170001B1F10101F061F1E040F0E110E1F090655
:100180000E112E1F051A121509011F011F101F0F36
:10019000180F1F0C1F1B041B031C03191513001F32
:1001A00011030418111F0002010220202000010287
:1001B0000C121E1F120C0C12120C121F0C1A14041B
:1001C0001E05242A1E1F021C141D1020201D1F089E
:1001D00014111F101E041E1E021C0C120C3E0A04D9
:1001E0000C123E1E040214160A020F120E101E0EEE
:1001F000100E1E081E120C1226281E322A26041E5D
:1002000021001F00211E040102013F213F05077F3D
:100210004141417F3E5B4F5B3E3E6B4F6B3E183C26
:10022000783C18183C7E3C181C577D571C1C5E7F80
:100230005E1C007E43437E007E73737E007E7F7F64
:100240007E7F4141417F30483A060E0629792906D2
:100250007F4141417F60703F02042A1C361C2A7F87
:100260003E1C080000081C3E7F14227F22143C3CE8
:100270003C7EFF18423C817E3E6375633E3E616B6F
:10028000633E3E636B6B3E04027F020410207F20BE
:100290001008082A1C08081C2A0808143E55412288
:1002A000637569756310181C1810040C1C0C04008D
:1002B0000000000000005F00000007000700147F3E
:1002C000147F14042A7F2A102313086462364956C7
:1002D00020500008070300001C2241000041221C9E
:1002E000002A1C3E1C2A08083E080800E0600000A6
:1002F0000808080808006060000060100804033E59
:100300005149453E00427F400062514949462141E2
:10031000494D331814127F1027454545393C4A4949
:1003200049304121110907364949493606494929C9
:100330001E00002400000080640000081422410018
:100340001414141414004122140802015909063E21
:10035000415D594E7C1211127C7F494949363E411C
:100360004141227F4141221C7F494949417F09097E
:1003700009013E414151327F0808087F00417F4119
:10038000002041413F017F081422417F404040400E
:100390007F020C027F7F0204087F3E4141413E7F85
:1003A000090909063E416141BE7F091929462649CE
:1003B00049493201017F01013F4040403F1F204039
:1003C000201F3F4038403F6314081463030478043F
:1003D000036151494543007F414100030408106017
:1003E0000041417F0004020102048080808080007F
:1003F0000307080020545478407F28444438384488
:10040000444428384444287F3854545418087E09FA
:10041000090218A4A49C787F0804047800447D4055
:1004200000006080847D7F1010284400417F4000E0
:100430007C047804787C080404783844444438FC0C
:100440001824241818242418FC7C080404080854D0
:10045000545420043F4444203C4040207C1C204015
:10046000201C3C4020403C44281028444C90909054
:100470007C4464544C44000836410000007F000076
:100480000041360800180408100C7F4141417F0AE2
:100490004E6F2053442063617264206F720A6E6F46
:1004A000204C4F414445522E4845580A0A153A45BA
:1004B000786974001D20466C617368696E670A2054
:1004C000206C6F616465722E2E2E0A0A444F4E27EF
:1004D00054205455524E204F464621004E4F204244
:1004E0004154544552590A0A504C454153450A5407
:1004F00055524E204F4646001773617665001662CE
:1005000061636B001574797065000A0A0A153A6F09
:100510006B617920163A6564697400596F752065BE
:100520006E74657265640A00540A03E181867F3E39
:10053000186D830F0F0E0183866033186DC3198FFA
:100540001803C38E6033186DE330CF1803C39E6069
:100550003630CDE360CF3006C79E7E3E30CDB360EF
:10056000CF300CC6F6603330D9B660CF33CFCCF67F
:100570006061B0DB1E60CF30D86CE6C061B0DB1EBE
:10058000618F19986CC6C063B19B0E330F0FB078A2
:10059000C6FF7E1F1B061E0F17534400161378005C
:1005A000161314001510200015201000000005007F
:1005B0008930080238024978681400004500680153
:1005C00000000500680138010000050038016801DD
:1005D0000000F6E8DBCFC3B8AEA49B928A827B749E
:1005E0006E68625C57524E4945413E3A3734312E6F
:1005F0002C29272523211F1D1C1A19171615141322
:100600001211100F0E0D0C0B0A0908070611061522
:10061000060101F7030101FF030000000024002789
:10062000002A0000000000250028002B0000000028
:100630000023002600290004040404040404040226
:10064000020202020203030303030301020408106F
:10065000204080010204081020010204081020003C
:100660000000070002010000030406000000000073
:1006700000000000C60311241FBECFEFD8E0DEBF8C
:10068000CDBF11E0A0E0B1E0E8E0F7E302C00590E3
:100690000D92A832B107D9F713E0A8E2B1E001C08A
:1006A0001D92A53CB107E1F716E0C6E7D6E004C00D
:1006B0002297FE010E94471BC437D107C9F70E9449
:1006C000A9170C94821B0C940000A0E0B0E0EBE6AC
:1006D000F3E00C94531BEC01A880B980CA80DB8046
:1006E000A114B104C104D10441F484E2A82E89ED1F
:1006F000B82E8BE5C82E87E0D82EC601B5012DE1B6
:1007000033EF41E050E00E942A1B27EA31E440E049
:1007100050E00E94C21A7B018C01C601B5012DE197
:1007200033EF41E050E00E942A1BCA01B9012CEED0
:1007300034EF4FEF5FEF0E94C21A6E0D7F1D801FD6
:10074000911F97FF04C061507040804090486883BB
:1007500079838A839B839B01AC015F77B901CA01CE
:10076000CDB7DEB7EAE00C946F1B0E9465030895D5
:1007700087E091E00E9465030895609307017093FC
:1007800008018093090190930A0108950F931F9324
:10079000E8E2F1E086E8DF011D928A95E9F7109220
:1007A00079011092780183E291E090937701809330
:1007B0007601E0E3F0E080910B0190910C019F0144
:1007C000281B390BC90162E070E00E94F51A709392
:1007D000B3016093B201009113011091140124E55B
:1007E00030E0C901801B910B9093B7018093B60153
:1007F0008091110190911201AF01481B590BCA0160
:1008000062E070E00E94F51A7093B9016093B8013C
:100810008091170190911801281B390B201B310B77
:10082000215030403093BB012093BA01DF01A81B57
:10083000B90BCD0162E070E00E94F51A7093BD0122
:100840006093BC011F910F9108958F929F92AF9278
:10085000BF92CF92DF92EF92FF920F931F9388E2A5
:1008600091E00E94C90F882309F4FFC182E391E05F
:1008700066E00E94A807882359F088E291E068E6C4
:1008800070E00E94E5111092400182E080937E01A9
:1008900082E391E061E041E00E94B207882391F099
:1008A0002091B2013091B30180910F01909110011C
:1008B000281B390B37FF02C020E030E03093B30132
:1008C0002093B20182E391E063E041E00E94B2072D
:1008D0008823D1F060E370E020910B0130910C018E
:1008E00040910F01509110018091B2019091B3019C
:1008F000480F591F621B730B461757070CF4BA01B8
:100900007093B3016093B2018091BA019091BB01E1
:100910002091190130911A01820F931F9093BB010E
:100920008093BA0120911B0130911C018091BC0180
:100930009091BD01820F931F9093BD018093BC01E4
:1009400097FF10C01092BD011092BC018827992713
:10095000821B930B90931C0180931B018DE491E00B
:100960000E94E41420911701309118018091BC017C
:100970009091BD01820F931FC197BCF080E390E07E
:10098000821B930B9093BD018093BC0180911B014E
:1009900090911C01909581959F4F90931C0180939D
:1009A0001B018DE491E00E94E41400911701109165
:1009B00018016091BA017091BB014091BC01509146
:1009C000BD01E090B001F090B101C090B201D090B3
:1009D000B301A0900D01B0900E0180900B0190909A
:1009E0000C0188E291E098010E942D0E8823E9F025
:1009F00080910D0190910E012091B0013091B101D3
:100A0000820F931F9093BB018093BA0180911901CB
:100A100090911A01909581959F4F90931A01809320
:100A200019018DE491E00E94E414009117011091E6
:100A300018016091BA017091BB014091BC015091C5
:100A4000BD01E090B601F090B701C090B801D09020
:100A5000B901A0901301B090140180901101909001
:100A6000120188E291E098010E942D0E8823E9F09E
:100A70008091B6019091B701209117013091180132
:100A8000821B930B9093BB018093BA018091190153
:100A900090911A01909581959F4F90931A018093A0
:100AA00019018DE491E00E94E4148091BA019091C3
:100AB000BB0197FF39C08091B4019091B5010196B7
:100AC0009093B5018093B4018DE491E00E94DE140F
:100AD00080910D0190910E0140969093BB018093FF
:100AE000BA018091190190911A0197FF03C0909566
:100AF00081959F4F90931A018093190120E330E074
:100B00008091170190911801281B390B442737FD5C
:100B10004095542F60E070E080E090E00E947F19E3
:100B20007093BD016093BC018091170190911801F1
:100B30002091BA013091BB01820F931F8535910539
:100B40000CF443C08091AE019091AF010196909357
:100B5000AF018093AE018DE491E00E94DE144091DC
:100B600017015091180184E590E0841B950B2091AA
:100B7000130130911401821B930B40979093BB019A
:100B80008093BA012091190130911A0137FF03C0F7
:100B9000309521953F4F88279927821B930B90937F
:100BA0001A018093190120E330E0241B350B442700
:100BB00037FD4095542F60E070E080E090E00E94A7
:100BC0007F197093BD016093BC018091AE0190913B
:100BD000AF010A9731F08091B4019091B5010A9765
:100BE00041F41092AF011092AE011092B501109233
:100BF000B40182E391E065E041E00E94B2078823FE
:100C000091F02091B8013091B90180911501909136
:100C10001601281B390B37FF02C020E030E030936B
:100C2000B9012093B80182E391E064E041E00E94C1
:100C3000B2078823D1F060E370E020911101309178
:100C4000120140911501509116018091B8019091C7
:100C5000B901480F591F621B730B461757070CF455
:100C6000BA017093B9016093B80186E791E06BE82F
:100C700070E00E942C0B82E080937E018FE08093D5
:100C80007F0110E1109380016091AE017091AF017E
:100C900086E791E04AE050E00E94011989E38093E1
:100CA0007F01109380016091B4017091B50186E7D6
:100CB00091E04AE050E00E94011986E791E06DE082
:100CC00072E00E942C0B0091170186E791E0609181
:100CD000BA014091BC01202F0E94CA0886E791E02A
:100CE0006091B0014091B20120910D0100910B0182
:100CF0000E94CA0886E791E06091B6014091B80170
:100D000020911301009111010E94CA081F910F91B7
:100D1000FF90EF90DF90CF90BF90AF909F908F901B
:100D200008950F931F9308E211E0C8010E94EA1191
:100D300086E791E06DE072E00E942C0BC80166E747
:100D400070E00E94E511C8010E947E0F10924001E0
:100D50001F910F910895882319F48CB5806202C009
:100D60008CB58F7D8CBD08959CB5937F982B9CBDD1
:100D700008952CB5382F33702C7F322B3CBD2DB508
:100D800090E0959587959595879581702E7F822B1C
:100D90008DBD08958AE061E00E9402178AE061E05B
:100DA0000E94C3168CB580618CBD8CB580648CBDEF
:100DB0008DE061E00E94C3168BE061E00E94C316E3
:100DC0000895FC0181E08083089585E070E00E9431
:100DD000631608956F927F928F929F92AF92BF9207
:100DE000CF92DF92EF92FF920F931F93CF93DF93F7
:100DF000EC0189819A818C0124E0000F111F2A9552
:100E0000E1F7081B190B85E10E944116BC01600F38
:100E1000711F84E0769567958A95E1F77A836983F7
:100E20008881882381F12E813F816217730710F436
:100E3000B90106C0888599858617970708F4BC0113
:100E400000D000D080E090E040E050E0E884F984F9
:100E500000E010E0AD80BB24CC24DD246C8077243E
:100E600088249924EDB7FEB76182728283829482CE
:100E70000E9414196B830F900F900F900F9085E0D4
:100E800070E00E946316DF91CF911F910F91FF9048
:100E9000EF90DF90CF90BF90AF909F908F907F901A
:100EA0006F900895FC018CE39FE09383828384E03C
:100EB000818381E084870895CF93DF93EC018C8553
:100EC00090E08F719070892B69F584E10E94411642
:100ED000AA2797FDA095BA2FBC01CD010E94D31976
:100EE00026EE3FE34EEC50E40E945F1A0E94A519E3
:100EF0009B01AC017B836A836115710589F084E0F5
:100F00008983B901FE0120E0848195816817790702
:100F100010F429830AC02F5F32962430A9F702C04B
:100F20008FEF89838C858F5F8C87DF91CF910895B8
:100F3000FC0188E0808389E0818387E0828386E00A
:100F4000838384E0848382E0858381E186830895BE
:100F500020E0FC01E60FF11D8781813009F421E0DA
:100F6000822F0895E62FF0E0423040F420E0E80FB1
:100F7000F91F878181508E3F88F40FC0E80FF91F59
:100F800087818F3F11F420E009C020E090E0642FBA
:100F900070E00E94E11A019709F421E0822F089580
:100FA0000F931F93CF93DF93EC0110E00FEF888135
:100FB00062E00E94C31688810E9456172F81892BF8
:100FC00019F42F5F2F8307C0222349F02F3F11F41C
:100FD0001F8201C00F83888160E00E94C3161F5FDB
:100FE0002196173021F7DF91CF911F910F9108952E
:100FF000FC01678F60A30895FC01678F40A30895EB
:10100000FC016435A8F547FD33C040338CF5878D6E
:10101000942F959595959595772767FD70954770D1
:10102000882399F0E4E59E02F0011124E60FF71FF2
:10103000E254FE4F81E090E002C0880F991F4A956C
:10104000E2F72081282B20830895E4E59E02F00139
:101050001124E60FF71FE254FE4F81E090E002C03A
:10106000880F991F4A95E2F78095208128232083D5
:101070000895AF92BF92CF92DF92EF92FF920F93BB
:101080001F93CF93DF93EC01162FF42EE22EAA24A8
:10109000402F552747FD50958F2D992787FD909517
:1010A000481B590B57FF03C0509541955F4F2E2D9C
:1010B000332727FD3095812F992787FD9095281B91
:1010C000390B37FF03C0309521953F4F2417350763
:1010D00044F4AA24A3948F2DF12E182F802F0E2DC7
:1010E000E82EE11634F48E2DE12E182F802F0F2DCF
:1010F000F82EDE2CD11A202F332727FD30958F2D87
:10110000992787FD9095281B390B37FF03C0309531
:1011100021953F4FB22EF0161CF0CC24CA9402C089
:10112000CC24C3948D2DD7FC8F5F082F059511C05B
:10113000AA2021F0CE016F2D412F03C0CE01612FD7
:101140004F2D0E9400080B1907FF02C0FC0C0D0D6B
:101150001F5FE1166CF7DF91CF911F910F91FF9008
:10116000EF90DF90CF90BF90AF9008950F93042F32
:10117000322F262F2150230F0E9439080F910895F6
:101180000F93362F042F0150020F232F0E9439088E
:101190000F9108959F92AF92BF92CF92DF92EF92FC
:1011A000FF920F931F93CF93DF936C01B62E942E73
:1011B000A02EC0E0D0E0E62EFF24E7FCF094022F42
:1011C000112707FD10950E0D1F1D06C0C601492DE4
:1011D0002A2D0E94C00821966B2D6C0FCE018E0D1A
:1011E0009F1D8017910794F3DF91CF911F910F916D
:1011F000FF90EF90DF90CF90BF90AF909F900895B9
:101200002F923F925F926F927F928F929F92AF92B6
:10121000BF92CF92DF92EF92FF920F931F93DF93D3
:10122000CF9300D000D000D0CDB7DEB79E838D83A2
:10123000C62ED42EEE24E394E21A8EEF289F502C73
:101240001124842E8A94962E9A94A42EA394B62EBA
:10125000B394F22E662423E0722E10E0C80184704D
:1012600090709A838983F801E270F070FC83EB83BD
:1012700098E0292E312C202231220170107054C0A8
:10128000E7FC04C0FA94F2E05F0EE50C63948981F8
:101290009A81892B71F04F2D4D0D8D819E816B2D83
:1012A0000E9400086F2D6C0D8D819E814A2D0E9439
:1012B0000008EB81FC81EF2B71F04D2D4F198D81D2
:1012C0009E816B2D0E9400086F2D6C0D8D819E817B
:1012D000482D0E9400082114310471F06C2D6F1903
:1012E0008D819E814A2D0E9400084F2D4D0D8D81CC
:1012F0009E81692D0E9400080115110571F06C2D69
:101300006F198D819E81482D0E9400084D2D4F1927
:101310008D819E81692D0E940008E70CF2E07F0E0E
:101320008A949A94A394B3946F140CF4A9CF26963C
:101330000FB6F894DEBF0FBECDBFCF91DF911F91E6
:101340000F91FF90EF90DF90CF90BF90AF909F9064
:101350008F907F906F905F903F902F9008954F9265
:101360005F926F927F928F929F92AF92BF92CF9235
:10137000DF92EF92FF920F931F93CF93DF93EC01D5
:10138000A62E742E9E2DFF24F394F21A8EEF289F22
:10139000802C1124B42EBA9453E0C52ECE0CE22E2C
:1013A000DD2443E0942E10E031E0432E512C402206
:1013B0005122692E63940270107034C0F7FC04C08F
:1013C000EA9482E0880EF80CD3944114510489F019
:1013D0006D2D6A0D472D4E192E2D220F260DCE0193
:1013E0000E94C0086E2D6A0DCE014B2D2C2D0E943F
:1013F000C0080115110589F06A2D6D19472D4E1988
:101400002E2D220F260DCE010E94C0086A2D6E19C6
:10141000CE014B2D2C2D0E94C008F90C82E0980EB5
:10142000BA94C80EDE1454F2DF91CF911F910F9140
:10143000FF90EF90DF90CF90BF90AF909F908F90F4
:101440007F906F905F904F9008957F928F929F92C0
:10145000AF92BF92CF92DF92EF92FF920F931F93C2
:101460006C01962EA42EF22E7E2C760E1EEFE19E9F
:10147000102D1124812E820E672D282D0E94B60872
:10148000B02EBA0CBA94C601672D4B2D282D0E94A0
:10149000B608AE0C100FC601692D4A2D212F0E94EF
:1014A000C008F90CFA94C6016F2D4A2D212F0E9415
:1014B000C008C601672D4A2D2E2D01E00E940009AB
:1014C000FE18C6016F2D4A2D2E2D02E00E94000944
:1014D000BE18C6016F2D4B2D2E2D04E00E94000971
:1014E000C601672D4B2D2E2D08E00E9400091F918B
:1014F0000F91FF90EF90DF90CF90BF90AF909F90B3
:101500008F907F9008958F929F92AF92BF92CF92CB
:10151000DF92EF92FF920F931F936C01162FA42E70
:10152000922EF02EBE2C8E2C860E2EEFE29EE02CFC
:1015300011242E2D290D682D0E94CA08AB0CFA9497
:10154000FE0C1150190D1B19C601612F4A2D2B2DB0
:1015500001E0EF2C0E94AF09C601682D4A2D2B2D0A
:1015600002E00E94AF091F910F91FF90EF90DF9072
:10157000CF90BF90AF909F908F9008953F924F92E1
:101580005F926F927F928F929F92AF92BF92CF9213
:10159000DF92EF92FF920F931F93CF93DF934C0153
:1015A000362E442EF901A490319654906F01089480
:1015B000C11CD11C8A2D992787FD9095079668E05C
:1015C00070E00E94F51AE62EFF24E7FCF09400E09C
:1015D000C0E0D0E060E8662E712C26C0E12FE595D2
:1015E000E595E595FF27E7FDF095EC0FFD1FEC0D68
:1015F000FD1DE4912E2F30E0812F8770A30102C0E2
:10160000559547958A95E2F724233523232B31F00E
:10161000612F630DC4014B2D0E9400081F5F1A1536
:10162000ECF20F5FCE0DDF1D051524F410E0B02E97
:10163000B40CF5CFDF91CF911F910F91FF90EF90F8
:10164000DF90CF90BF90AF909F908F907F906F90E2
:101650005F904F903F900895DC01FB0184918F5F74
:1016600014968C931497319684918F5F15968C9372
:10167000159731965E96FC93EE935D9708953F9291
:101680004F925F926F927F928F929F92AF92BF9292
:10169000CF92DF92EF92FF920F931F93CF93DF933E
:1016A000EC01862EA42E422F102F3F8C23E5261707
:1016B0000CF4ABC03FE23A150CF4A7C0C02EDD24F9
:1016C0008C8190E001979C01C29EC001C39E900D49
:1016D000D29E900D1124262F332727FD3095820F9F
:1016E000931F181619060CF090C08D8190E09C0194
:1016F000C29EC001C39E900DD29E900D11242A2D32
:10170000332727FD3095820F931F181619060CF00A
:101710007CC09924442E55246DC09C01215030403A
:101720004217530711F460E00EC0429EC001439E71
:10173000900D529E900D1124840F951FED8DFE8DFE
:10174000E80FF91F64914C9DC0014D9D900D5C9D6B
:10175000900D1124682C680EBB24792C780C3FC0A6
:10176000E62EFF2460FF19C0113039F44B2D4A0DCD
:10177000CE01672D0E9400082EC02C9DC0012D9D1A
:10178000900D3C9D900D11244A2D480FCE01662DE1
:10179000212F012F0E94CA081EC098A18F8D981773
:1017A000D1F09F8F113039F44B2D4A0DCE01672DAA
:1017B0000E9400080FC02C9DC0012D9D900D3C9DE6
:1017C000900D11244A2D480FCE01662D212F012F97
:1017D0000E94CA083F8EF594E7946E2DB3942B2D8A
:1017E000332727FD30958D8190E0281739070CF4B9
:1017F000B7CF9394492D552747FD50958C8190E0A4
:10180000481759070CF489CF3F8EDF91CF911F9174
:101810000F91FF90EF90DF90CF90BF90AF909F908F
:101820008F907F906F905F904F903F9008950F93AF
:10183000CF93DF93EC01262F6A3049F48D81988590
:10184000899F802D11249A85980F9A8726C06D3024
:1018500029F169854A8508850E943F0B9C8168852E
:10186000969F402D11248985480F49878F818823B1
:10187000A9F0552747FD5095699F9001112484E5F3
:1018800090E0821B930B8417950744F49D81699F18
:10189000902D11248A85890F8A87198681E090E02E
:1018A000DF91CF910F9108951F93CF93DF93EC01B8
:1018B000162FF8948E8560E00E9402178F85181607
:1018C0001CF460E00E9402171EBD0DB407FEFDCFA0
:1018D0008EB58F8518161CF461E00E94021778946B
:1018E000DF91CF911F910895FF920F931F93CF9394
:1018F000DF93EC01FF2400E010E06F2D6064CE0167
:101900000E94540CCE0160E80E94540C8E8561E068
:101910000E9402178F8518161CF460E00E940217BF
:10192000F801E254FE4F90E080818EBD0DB407FEB9
:10193000FDCF8EB59F5F31969435B1F78F85181620
:101940001CF461E00E940217F3940C5A1F4F86E0CA
:10195000F81699F6CE0160E40E94540CDF91CF9105
:101960001F910F91FF900895CF93DF93DC0188EFD3
:1019700091E0EEEBF1E0EF019C0119922150304033
:10198000E1F719961C9219971A961C92DF91CF9144
:101990000895EF920F93CF93DF93EC014D876C87FF
:1019A0002E87E88A0F8781E088878F8F18A28F8320
:1019B000EBE8F0E084918F5F8C83319684918F5FA8
:1019C0008D833196FE8FED8F0E94CA0681E00E94C2
:1019D000AB0685E00E94B9068CE00E94B4068D85B6
:1019E00061E00E94C3168C8561E00E94C3168E855B
:1019F00061E00E94C316888918161CF461E00E94F9
:101A0000C3168F8518161CF461E00E94C3168889DE
:101A100018166CF460E00E9402176AE070E080E043
:101A200090E00E94AD15888961E00E940217EC8564
:101A30002E2F332727FD3095F901E95CF94FE4910A
:101A4000F0E0EE0FFF1FED5DF94F859194919C8BB7
:101A50008B8B255B394FF90184918A8FED852E2F71
:101A6000332727FD3095F901E95CF94FE491F0E067
:101A7000EE0FFF1FED5DF94F859194919A8B898B45
:101A8000255B394FF9018491898FEF852E2F3327FC
:101A900027FD3095F901E95CF94FE491F0E0EE0F94
:101AA000FF1FED5DF94F859194919E8B8D8B255B8A
:101AB000394FF90184918B8FEE852E2F332727FD27
:101AC0003095F901E95CF94FE491F0E0EE0FFF1F6A
:101AD000ED5DF94F85919491988F8F8B255B394FF0
:101AE000F90184918C8FCE0161E20E94540CCE01E9
:101AF00064E10E94540C8B8587FF02C08FE78B87BF
:101B00006B856068CE010E94540CCE0160E20E9499
:101B1000540CCE016CE00E94540CCE010E94740C57
:101B2000DF91CF910F91EF900895CF93DF93DC0178
:101B3000E0E8FFE685919491ED01C75ADF4FAD01D2
:101B400041595F4F8150904C09F04EC0E6E9FFE6E5
:101B5000E491E883E7E9FFE6E4911496EC931497A7
:101B6000E8E9FFE6E4911596EC931597E9E9FFE6BD
:101B70008591949117969C938E931697EBE9FFE6C7
:101B80008591949119969C938E931897EDE9FFE6B1
:101B9000E4919B96EC939B97EEE9FFE6E4919A968D
:101BA000EC939A97EFE9FFE6E491EA01E883E0EA33
:101BB000FFE6859194915D969C938E935C97E2EA03
:101BC000FFE6859194915F969C938E935E97E4EAED
:101BD000FFE68591949191969C938E939097E6EA77
:101BE000FFE68591949132C08CE3888314961C9211
:101BF00014972FEF15962C93159780E293E0179684
:101C00009C938E93169784ED93E019969C938E93F4
:101C1000189781E09B968C939B979A968C939A97B2
:101C2000FA0120838CEA9DE05D969C938E935C97ED
:101C30008EED9DE05F969C938E935E9784E79EE089
:101C400091969C938E9390978CE39FE093969C93B0
:101C50008E939297DF91CF9108958F929F92AF923A
:101C6000BF92CF92DF92EF92FF920F931F93DF9379
:101C7000CF93CDB7DEB7260F371F2E153F0594F053
:101C8000AE0CBF1CA616B7066CF0040F151F0C1582
:101C90001D0544F080E08C0C9D1C841695061CF0FC
:101CA00081E001C080E0CF91DF911F910F91FF9003
:101CB000EF90DF90CF90BF90AF909F908F9008955E
:101CC000EF92FF920F931F93CF93DF937C018C01D0
:101CD000025B1F4FC8010E94B40CC80164EB74E0A2
:101CE0000E94E217C8010E94740C83E00E94B906AA
:101CF00080E091E0EEEFFFE3099584E590E0E80EE7
:101D0000F91EF7011082C8016FE874E00E942D18D7
:101D1000C8010E94740CE701CA54D040CE010E9451
:101D2000D007CE0164E00E94A807882339F462E35B
:101D300070E080E090E00E94AD15F0CFDF91CF9190
:101D40001F910F91FF90EF9008950F931F93CF93E2
:101D5000DF93EC018C01025B1F4FC80161E040E0A2
:101D60000E94FC07FE01E95AFF4FCE5ADF4F85E57E
:101D70009881891B808326961882C855D040698D2A
:101D8000613081F1613028F0888D653008F043C002
:101D90003DC0CE0185960E94B112CE0160E00E9446
:101DA000E506C8010E94B40CCA5ADF4F81E088835F
:101DB000C8016CED74E00E94E217C8010E94740C27
:101DC00083B7817F846083BF83B7816083BF83B71C
:101DD000816083BF889583B78E7F83BF83B78E7FF3
:101DE00083BF1FC0C059DF4F88819981AA81BB8101
:101DF0008F709070A070B0700897A105B10518F4AD
:101E0000C80167E00CC0C80168E709C0882349F031
:101E10006B5FC80104C0882321F0C8016FE20E94F3
:101E20000518DF91CF911F910F910895AF92BF9246
:101E3000CF92DF92EF92FF920F931F93CF93DF9396
:101E4000EC01CB57DF4F8881C558D040882309F477
:101E50004AC08C3010F010E002C01CE0181BCA5AB7
:101E6000DF4F81E08883C655D0406EE4C62ED12C6A
:101E7000CC0EDD1EC60160E00E94F80753E5A52EDA
:101E8000B12CAC0EBD1EF50100814DE2F42E4F2D9C
:101E9000401B410F0D5FC60160E024E533E0E32EF7
:101EA0000E94830AC60161E00E94F807F5010081E3
:101EB000F01AF10E0D5FC60160E04F2D24E50E947F
:101EC000250AC95ADF4F84E08993F5018081181BE8
:101ED000115D1883AB9669917991C6010E94E21752
:101EE000888181508883DF91CF911F910F91FF905E
:101EF000EF90DF90CF90BF90AF9008954F925F9298
:101F00006F927F928F929F92AF92BF92CF92DF9209
:101F1000EF92FF920F931F932C01FC01628C738C44
:101F200060947094882499240E9487155B016C0149
:101F30000E9487157B018C01F201418052800E9432
:101F40008715460E571EA094B094C094D094E09488
:101F5000F09400951095C601B501A80197010E9463
:101F6000C21AA40193010E94C21A460E571EC20152
:101F70000E949D191F910F91FF90EF90DF90CF90DD
:101F8000BF90AF909F908F907F906F905F904F9099
:101F90000895AF92BF92CF92DF92EF92FF920F938C
:101FA0001F93CF93DF93EC01EFE7AE2EB12CA80E79
:101FB000B91EF501E080F180028113810E9479153C
:101FC000E61AF70A080B190B7EE7C72ED12CCC0EA8
:101FD000DD1EF601808190E0A0E0B0E08E159F0547
:101FE000A007B10708F081C08E0106581F4FF80105
:101FF00080819181A281B3810097A105B10509F487
:1020000074C00E947915F6012081620F711D811D37
:10201000911DF5016083718382839383FE01E059F2
:10202000FF4F80819181A281B3810196A11DB11DD5
:1020300080839183A283B383F8011082118212827C
:1020400013820E948715CA58DF4F688379838A8379
:102050009B83C657D040CE010E94EA06CE010A9665
:102060000E94D007CE0148960E945C0781E032C0F2
:102070008E010B5D1F4FC8010E94AD12C8010E9466
:102080008513C8010E947B14CE010E94160FCE0159
:102090000E94A50E8E01025B1F4FC8010E94740CA6
:1020A000CC5ADF4F8881C455D040882319F4C80129
:1020B0000E94B40C0E948715C658DF4F688379834D
:1020C0008A839B83249728813981621B730B7A93BF
:1020D0006A9380E0DF91CF911F910F91FF90EF9075
:1020E000DF90CF90BF90AF900895C658DF4F8881A2
:1020F0009981AA81BB81CA57D0400097A105B1053B
:1021000041F7B6CF2F923F924F925F926F927F929C
:102110008F929F92AF92BF92CF92DF92EF92FF92F7
:102120000F931F93DF93CF93CDB7DEB72B970FB6E7
:10213000F894DEBF0FBECDBF9B878A877A83698301
:102140005C834B838C0101591F4FF80180818823E8
:1021500009F422C18A859B858A5A9F4F9B878A876B
:1021600081E0EA85FB85808312921292E455F0406B
:10217000FB87EA87108E9EE4E92EF12CEE0EFF1EFF
:10218000C70161E00E94F8078AE0282E312C8A8579
:102190009B85280E391EB5E26B2E712C680E791EB8
:1021A000E981FA81F491FD83A7E58A2E912C880EAE
:1021B000991EF8E5CF2ED12CC80ED91EE2E54E2E81
:1021C000512C480E591E8D5A9F4F9F838E8370E766
:1021D000A72EB12C8A859B85A80EB91E1987088762
:1021E0008A859B850E94C90F8823D1F39D819923FD
:1021F00011F410E003C0EE81FF811081C70160E09F
:1022000040E028E235E00E94BE0A8B819C81892B48
:1022100041F0145FC70160E0412F2B813C810E9497
:10222000BE0AF40110828CE0F6018083C701698147
:102230007A810E94E217F201208130E0C901880F03
:10224000991F820F931F909581959F4F8D5AF4018E
:102250008083EE81FF81208130E0C901880F991FC2
:10226000820F931F909581959F4F835DF601808328
:10227000F501808184FF04C0C70168EA75E003C0EE
:10228000C70164EA75E00E942D18F201208130E058
:10229000C901880F991F820F931F909581959F4FB9
:1022A0008D5AF4018083F60180818F5F8083EA85F7
:1022B000FB8582A5882321F0C70160EA75E003C091
:1022C000C7016CE975E00E942D18F201808190E051
:1022D0009C01220F331F280F391F309521953F4F46
:1022E0002D5AF4012083F60180818F5F8083C7011E
:1022F00068E975E00E942D18C10165E00E94A807F9
:10230000882351F0EA85FB8562A56F5FC3010E94B7
:10231000EA14C3010E94E414C10164E00E94A8070A
:10232000882399F4E885F9856081262F30E040E024
:1023300050E0F50180819181A281B38182179307DA
:10234000A407B50708F16F3FF9F08A859B8581598D
:102350009F4F9B878A878FEFEA85FB858083EF56A7
:10236000F040FB87EA87C30160E00E945112C3017D
:102370000E94D81481E0EA85FB85808F0DC08A8594
:102380009B850E94600E2CCFC10166E00E94A807C9
:10239000882309F425CFF3CF2B960FB6F894DEBF30
:1023A0000FBECDBFCF91DF911F910F91FF90EF90A6
:1023B000DF90CF90BF90AF909F908F907F906F9065
:1023C0005F904F903F902F90089540E050E00E9422
:1023D00082100895AF92BF92CF92DF92EF920F9347
:1023E000CF93DF936C018EE790E0C80ED91E82E395
:1023F000F601808381E090E0A0E0B0E0B293A29388
:10240000929382936F0185EF9FEFC80ED91E8FEFD5
:10241000F601808381E99FEFC80ED91EC6010E9494
:10242000950DC6010E94E106C6016FEF0E94E50608
:102430004AE0A42EB12CAC0CBD1CC5010E9498072B
:10244000C5010E94D007C60148960E945207C601E6
:10245000825B9F4F6DE04BE020E10FE03EE0E32E1A
:102460000E94C90CE601A596CE010E94F714C50191
:1024700065E00E94A807882329F0CE0160E00E9451
:10248000EA1406C0CE016EEA75E040E00E946312D5
:10249000DF91CF910F91EF90DF90CF90BF90AF90F1
:1024A0000895FC01662371F4178A158A14A213A2F9
:1024B000108E1092BA031092B9031092B7031092C3
:1024C000B400118208950F931F93CF93DF93EC0113
:1024D0008B01442371F460E00E9451121E870D8726
:1024E0001B8A1A8A81E0898389E08E8B198E1B8E64
:1024F0001D8EDF91CF911F910F910895CF93DF93A0
:10250000EC01662339F58881882321F189818823AC
:1025100009F5898590E0880F991FEF81F885E80F0C
:10252000F91F859194912FEF8F3F920711F4188234
:1025300011C09C8790E0880F991FEA85FB85E80F02
:10254000F91F65917491CE0140E00E946312898564
:102550008F5F8987DF91CF91089560E00E947E129E
:10256000089560E00E94511208950F93DC0100234A
:1025700009F047C06230A1F1633030F4662351F0B6
:10258000613009F03EC009C0633081F1643009F068
:1025900038C032C056964C9334C0842F90E0880FD8
:1025A000991F1F962D913C915097280F391FF901C3
:1025B0008591949190969C938E935F97FC014591A1
:1025C0005491642F91964C939197252F3327842F04
:1025D00090E02817390708F4652F92966C9311C084
:1025E00059964C9359975A962C930BC05B964C93E3
:1025F0005B975C962C9305C05D964C935D975E96B9
:102600002C930F9108950F93CF93DF93EC016623E2
:1026100009F077C08981882309F473C08D898823E4
:1026200009F06FC0EA89FB89EE0FFF1F4D855E85BB
:10263000E40FF51F259134912115310509F049C0AA
:102640008989813031F41B8A1A8AFA0125913491E3
:1026500040C019828881882379F0CE0160E00E9411
:102660007E128A899B89880F991FED85FE85E80F68
:10267000F91F259134912DC01F8A1D8A1CA21BA20F
:10268000188E1092BA031092B9031092B7031092E9
:10269000B40037C006E0369527950A95E1F76F70CC
:1026A000422F4F71B5E036952795BA95E1F7205145
:1026B000CE0100E00E94B5128A899B8901969B8B0E
:1026C0008A8B880F991FED85FE85E80FF91F2591EC
:1026D0003491B901769567957695679520FDDACFA7
:1026E000862F8F738C8B3D8B1DA21CA21BA281E0B9
:1026F0008F8B8093B703188E8A899B8901969B8B59
:102700008A8BDF91CF910F91089560E00E940313AF
:102710000895CF93DF93EC01662309F0E9C08F8918
:10272000882309F4E5C08D89882371F41F8A1D8AE6
:102730001CA21BA2188E1092BA031092B903109219
:10274000B7031092B400D4C081508D8B8DA1882323
:1027500009F044C08BA19CA10196880F991FEF8DB1
:10276000F8A1E80FF91F85919491282F27702EA3C7
:10277000AC0173E0569547957A95E1F79A01369545
:102780002795892F9927869586958FA32F738C81FE
:10279000289F202D11242DA341704093BB038BA1B2
:1027A0009CA101969CA38BA329A130E082179307DB
:1027B000A8F08AA1882329F0281B31093CA32BA368
:1027C0000DC01F8A1D8A1CA21BA2188E1092BA036C
:1027D0001092B9031092B7031092B4008DA18150EA
:1027E0008DA3988D9F5F988F2FA18C89280F8C8542
:1027F000280F2A836B8D662369F0892F992787FD1F
:10280000909570E00E94F51A8C8D869F802D112482
:10281000820F8A838A8190E0CB966BE370E00E94FE
:10282000F51A8A832E892B83698D662379F0888D2A
:10283000772767FD7095992787FD90950E94F51A77
:102840008A8D869F802D1124820F8B836D8D662348
:1028500099F0888D992787FD909570E00E94F51A70
:10286000CB0162E070E00E94F51A9E8D899F802D59
:1028700011249B81890F8B838B818A300CF089E036
:1028800087FD80E08B838C898F3309F41B82F89459
:10289000EA81F0E0EE52FA4FE491E093B8032D8123
:1028A00030E08B81992787FD9095A901489F900181
:1028B000499F300D589F300D112488A590E0A90143
:1028C000489F9001499F300D589F300D11248EA1D3
:1028D000992787FD9095AC01249FC001259F900DFD
:1028E000349F900D11248093B9038093BA03789498
:1028F000DF91CF91089560E00E948913089560915F
:10290000B903662381F18091B6038F5F8093B6038C
:102910009091B803891738F130E08091B70388238C
:1029200009F431E03093B7031092B6038091BB03F2
:102930008823A9F080911D0123E4829FC001112406
:10294000895B80931D0190E070E00E94E11A809302
:10295000BA0305C08091BA038093B400089533236D
:10296000C9F780E0F9CF08951F920F920FB60F922A
:1029700011242F933F934F935F936F937F938F9384
:102980009F93AF93BF93EF93FF930E947F14FF91A8
:10299000EF91BF91AF919F918F917F916F915F91D7
:1029A0004F913F912F910F900FBE0F901F90189550
:1029B0006AEC75E040E00E946312089562EC75E0F5
:1029C00040E00E94631208956CEB75E040E00E94C5
:1029D00063120895FC01862F668170E06F5F7F4F60
:1029E000992787FD90950E94F51A858308950F9386
:1029F000FC0181E0848384E080A78DE096E0908BE9
:102A00008787CF0161E040E020E000E00E94B5123E
:102A100083E061E070E00E946316E1EBF0E080810A
:102A2000887F81608083F89410928000E1E8F0E074
:102A30001082109285001092840088E191E09093BA
:102A40008900809388008081886080838081816094
:102A50008083EFE6F0E080818260808378940F913C
:102A600008951F920F920FB60F9211242F933F9348
:102A70008F939F93AF93BF938091C0039091C103B5
:102A8000A091C203B091C3033091C4030196A11D6C
:102A9000B11D232F2D5F2D3720F02D570196A11D3D
:102AA000B11D2093C4038093C0039093C103A093EE
:102AB000C203B093C3038091BC039091BD03A09166
:102AC000BE03B091BF030196A11DB11D8093BC034D
:102AD0009093BD03A093BE03B093BF03BF91AF918A
:102AE0009F918F913F912F910F900FBE0F901F904C
:102AF00018958FB7F8942091C0033091C10340918D
:102B0000C2035091C3038FBFB901CA0108959FB793
:102B1000F8942091BC033091BD034091BE035091C5
:102B2000BF0386B5A89B06C08F3F21F02F5F3F4FA4
:102B30004F4F5F4F9FBF542F432F322F2227280F15
:102B4000311D411D511D82E0220F331F441F551FAF
:102B50008A95D1F7B901CA0108959B01AC017FB7ED
:102B6000F8948091BC039091BD03A091BE03B091F5
:102B7000BF0366B5A89B05C06F3F19F00196A11D64
:102B8000B11D7FBFBA2FA92F982F8827860F911DBF
:102B9000A11DB11D62E0880F991FAA1FBB1F6A9576
:102BA000D1F7BC012DC0FFB7F8948091BC03909180
:102BB000BD03A091BE03B091BF03E6B5A89B05C0BD
:102BC000EF3F19F00196A11DB11DFFBFBA2FA92F2C
:102BD000982F88278E0F911DA11DB11DE2E0880F4F
:102BE000991FAA1FBB1FEA95D1F7861B970B885E1A
:102BF0009340C8F2215030404040504068517C4FD3
:102C0000211531054105510571F60895789484B573
:102C1000826084BD84B5816084BD85B5826085BDD8
:102C200085B5816085BDEEE6F0E0808181608083BE
:102C3000E1E8F0E0108280818260808380818160A1
:102C40008083E0E8F0E0808181608083E1EBF0E068
:102C5000808184608083E0EBF0E08081816080830C
:102C6000EAE7F0E0808184608083808182608083F5
:102C70008081816080838081806880831092C10020
:102C80000895982F8E3008F09E50977080911E0105
:102C90008295880F880F807C892B80937C0080919F
:102CA0007A00806480937A0080917A0086FDFCCF60
:102CB0002091780040917900942F80E030E0282B1B
:102CC000392BC90108951F93CF93DF93182FEB0180
:102CD00061E00E94C316209709F44AC0CF3FD10596
:102CE00009F449C0E12FF0E0E15AF94F84918330B3
:102CF000C1F0843028F4813051F08230B1F50CC03D
:102D0000863019F1873049F1843079F514C084B5E3
:102D1000806884BDC7BD33C084B5806284BDC8BD32
:102D20002EC080918000806880938000D0938900BD
:102D3000C093880024C080918000806280938000CE
:102D4000D0938B00C0938A001AC08091B000806835
:102D50008093B000C093B30012C08091B000806235
:102D60008093B000C093B4000AC0C038D1051CF4F1
:102D7000812F60E002C0812F61E00E940217DF9185
:102D8000CF911F910895CF93DF93482F50E0CA0150
:102D9000855B994FFC013491495C594FFA0184914C
:102DA000882369F190E0880F991FFC01E75EF94FD5
:102DB000A591B491FC01ED5DF94FC591D4916623C5
:102DC00051F42FB7F8948C91932F909589238C937D
:102DD000888189230BC0623061F42FB7F8948C91FD
:102DE000932F909589238C938881832B88832FBF81
:102DF00006C09FB7F8948C91832B8C939FBFDF9173
:102E0000CF910895482F50E0CA01815A994FFC0193
:102E10002491CA01855B994FFC019491495C594FFB
:102E2000FA013491332309F440C0222351F12330B5
:102E300071F0243028F42130A1F0223011F514C0B3
:102E40002630B1F02730C1F02430D9F404C080918D
:102E500080008F7703C0809180008F7D80938000F9
:102E600010C084B58F7702C084B58F7D84BD09C042
:102E70008091B0008F7703C08091B0008F7D8093E8
:102E8000B000E32FF0E0EE0FFF1FED5DF94FA591CD
:102E9000B4912FB7F894662321F48C9190958923EF
:102EA00002C08C91892B8C932FBF0895682F70E0FE
:102EB000CB01815A994FFC012491CB01855B994F3D
:102EC000FC014491695C794FFB019491992319F4B9
:102ED00020E030E03CC0222351F1233071F0243057
:102EE00028F42130A1F0223011F514C02630B1F0C1
:102EF0002730C1F02430D9F404C0809180008F774E
:102F000003C0809180008F7D8093800010C084B5C5
:102F10008F7702C084B58F7D84BD09C08091B000D9
:102F20008F7703C08091B0008F7D8093B000892F90
:102F300090E0880F991F835D994FFC01A591B49192
:102F40008C9120E030E0842311F021E030E0C901D1
:102F50000895CF93DF930E9406160E949106C0E069
:102F6000D0E00E9425042097E1F30E940000F9CFF1
:102F7000CF92DF92EF92FF920F931F93CF93DF9345
:102F80007C016B018A01C0E0D0E00FC0D6016D91D9
:102F90006D01D701ED91FC910190F081E02DC70109
:102FA0000995C80FD91F015010400115110571F77F
:102FB000CE01DF91CF911F910F91FF90EF90DF90A5
:102FC000CF900895EF92FF920F931F93CF93DF93CB
:102FD0007C018B01C0E0D0E0F8010F5F1F4F6491CE
:102FE000662359F0D701ED91FC910190F081E02D1D
:102FF000C7010995C80FD91FEFCFCE01DF91CF913F
:103000001F910F91FF90EF900895DC01ED91FC91DD
:103010000190F081E02D09950895EF92FF920F93B2
:103020001F938C01DC01ED91FC910190F081E02D6A
:103030006DE009957C01D801ED91FC910190F08142
:10304000E02DC8016AE009959C012E0D3F1DC901C4
:103050001F910F91FF90EF900895EF92FF920F93C1
:103060001F937C010E94E2178C01C7010E940D187A
:103070009C01200F311FC9011F910F91FF90EF900C
:103080000895CF93DF93EC016115710519F420E0E9
:1030900030E00FC0DB010D900020E9F71197A61B6F
:1030A000B70BE881F9810280F381E02DAD0109952C
:1030B0009C01C901DF91CF9108954F925F927F9259
:1030C0008F929F92AF92BF92CF92DF92EF92FF9238
:1030D0000F931F93DF93CF93CDB7DEB7A1970FB6B2
:1030E000F894DEBF0FBECDBF2C01742ECB01223071
:1030F00008F42AE019A231E2C32ED12CCC0EDD1E39
:10310000822E9924AA24BB24672D752FA501940132
:103110000E94081B79018A01C801B701A501940129
:103120000E94C21A472D461B0894C108D1084A3094
:1031300014F4405D01C0495CF6014083E114F104E0
:103140000105110521F07E2C5F2DC801DDCFC201E4
:10315000B6010E944118A1960FB6F894DEBF0FBECB
:10316000CDBFCF91DF911F910F91FF90EF90DF9036
:10317000CF90BF90AF909F908F907F905F904F9037
:103180000895CF92DF92EF92FF920F931F93CF9308
:10319000DF93EC016A017B012115310541F4E881DF
:1031A000F9810190F081E02D642F09951FC02A302C
:1031B0003105D1F477FF17C0E881F9810190F081E2
:1031C000E02D6DE209958C0144275527BA014C1971
:1031D0005D096E097F09CE012AE00E945D18980101
:1031E000280F391F04C02AE00E945D189C01C90104
:1031F000DF91CF911F910F91FF90EF90DF90CF90D3
:103200000895EF92FF920F931F937B019A0100277D
:10321000F7FC0095102FB801A7010E94C1181F915B
:103220000F91FF90EF9008952F923F924F925F92EF
:103230006F927F928F929F92AF92BF92CF92DF92C6
:10324000EF92FF920F931F93DF93CF93CDB7DEB72B
:103250003B014C0119012A016D897E898F89988D66
:103260006A197B098C099D09621A730A840A950AF6
:10327000A40193010E94C21AE218F3080409150977
:10328000A80197010E942A1B2A0D3B1D4C1D5D1DA4
:10329000B901CA01CF91DF911F910F91FF90EF907B
:1032A000DF90CF90BF90AF909F908F907F906F9066
:1032B0005F904F903F902F900895EF92FF920F9361
:1032C0001F937B018C01611571058105910529F41E
:1032D00020E030E040E050E00BC00E94B803A801BD
:1032E00097010E942A1BAC01CB01DA019C01AD01C0
:1032F000B901CA011F910F91FF90EF900895EF92CD
:10330000FF920F931F937B018C0162177307840751
:10331000950764F4261B370B480B590BCA01B901FA
:103320000E945D19E60EF71E081F191FB701C8019C
:103330001F910F91FF90EF900895009729F0BC0125
:1033400080E090E00E94BD03089598D088F09F57D8
:1033500090F0B92F9927B751A0F0D1F0660F771FE1
:10336000881F991F1AF0BA95C9F712C0B13081F0C1
:103370009FD0B1E008959CC0672F782F8827B85F51
:1033800039F0B93FCCF3869577956795B395D9F722
:103390003EF490958095709561957F4F8F4F9F4F2C
:1033A0000895E89409C097FB3EF490958095709538
:1033B00061957F4F8F4F9F4F9923A9F0F92F96E981
:1033C000BB279395F695879577956795B795F111F6
:1033D000F8CFFAF4BB0F11F460FF1BC06F5F7F4F93
:1033E0008F4F9F4F16C0882311F096E911C07723A5
:1033F00021F09EE8872F762F05C0662371F096E8AE
:10340000862F70E060E02AF09A95660F771F881F7C
:10341000DAF7880F9695879597F9089597F99F673A
:1034200080E870E060E008959FEF80EC089500244C
:103430000A941616170618060906089500240A9419
:1034400012161306140605060895092E0394000C9F
:1034500011F4882352F0BB0F40F4BF2B11F460FF2E
:1034600004C06F5F7F4F8F4F9F4F089557FD905857
:10347000440F551F59F05F3F71F04795880F97FB38
:10348000991F61F09F3F79F08795089512161306F2
:103490001406551FF2CF4695F1DF08C01616170621
:1034A0001806991FF1CF8695710561050894089556
:1034B000E894BB2766277727CB0197F908950BD0AF
:1034C000C4CFB5DF28F0BADF18F0952309F0A6CFF6
:1034D000ABCF1124EECFCADFA0F3959FD1F3950FA8
:1034E00050E0551F629FF001729FBB27F00DB11D88
:1034F000639FAA27F00DB11DAA1F649F6627B00D18
:10350000A11D661F829F2227B00DA11D621F739F00
:10351000B00DA11D621F839FA00D611D221F749F0E
:103520003327A00D611D231F849F600D211D822F55
:10353000762F6A2F11249F5750408AF0E1F088239C
:103540004AF0EE0FFF1FBB1F661F771F881F9150A9
:103550005040A9F79E3F510570F060CFAACF5F3F62
:10356000ECF3983EDCF3869577956795B795F795DC
:10357000E7959F5FC1F7FE2B880F911D9695879564
:1035800097F90895629FD001739FF001829FE00D2B
:10359000F11D649FE00DF11D929FF00D839FF00DD2
:1035A000749FF00D659FF00D9927729FB00DE11D7E
:1035B000F91F639FB00DE11DF91FBD01CF0111245B
:1035C0000895AA1BBB1B51E107C0AA1FBB1FA6176A
:1035D000B70710F0A61BB70B881F991F5A95A9F7BC
:1035E00080959095BC01CD01089597FB092E072683
:1035F0000AD077FD04D0E5DF06D000201AF47095DC
:1036000061957F4F0895F6F7909581959F4F0895A6
:10361000A1E21A2EAA1BBB1BFD010DC0AA1FBB1FD6
:10362000EE1FFF1FA217B307E407F50720F0A21B48
:10363000B30BE40BF50B661F771F881F991F1A94B5
:1036400069F760957095809590959B01AC01BD01DF
:10365000CF01089597FB092E05260ED057FD04D003
:10366000D7DF0AD0001C38F450954095309521954D
:103670003F4F4F4F5F4F0895F6F7909580957095A7
:1036800061957F4F8F4F9F4F0895EE0FFF1F05905D
:10369000F491E02D09942F923F924F925F926F9296
:1036A0007F928F929F92AF92BF92CF92DF92EF92D2
:1036B000FF920F931F93CF93DF93CDB7DEB7CA1B53
:1036C000DB0B0FB6F894DEBF0FBECDBF09942A887E
:1036D000398848885F846E847D848C849B84AA8426
:1036E000B984C884DF80EE80FD800C811B81AA81B3
:1036F000B981CE0FD11D0FB6F894DEBF0FBECDBF7E
:08370000ED010895F894FFCFDC
:103708004C4F4144455200010000001000030002E4
:10371800001000030002000600030003000101007E
:08372800000000170CB81700A7
:00000001FF
